:1000000012C019C018C017C016C015C014C013C044
:1000100012C011C010C00FC00EC00DC00CC00BC06C
:100020000AC009C008C011241FBECFE5D4E0DEBF5E
:10003000CDBF12D042C0E4CF84EA86BF06B607FE29
:10004000FDCF81B1887F089583B984E886BF06B665
:1000500007FEFDCF83B1089514BA85B3806385BBD5
:1000600011BA82B3846082BB87B3816087BB8AE0A8
:1000700080B911B888B38E7F88BBC0E0829913C065
:10008000C0FDFCCFC1608FEF93EB0197F1F700C08B
:100090000000D2DF82E0D8DF81E0D6DF81E0D4DF6C
:1000A00084E986BFEBCFC0FFE9CFCE7F8FEF93EB24
:0E00B0000197F1F700C00000E1CFF894FFCFF8
:00000001FF
